:020000040800F2
:10000000008001208D080008DD080008DD080008D8
:10001000DD080008DD080008DD0800080000000019
:10002000000000000000000000000000DD080008E3
:10003000DD08000800000000DD080008DD080008F9
:1000400000000000DD080008DD080008DD080008E9
:10005000DD080008DD080008DD080008DD080008EC
:10006000DD080008DD0800080D050008000000009C
:100070000000000000000000000000000000000080
:100080000000000000000000DD0800080000000083
:100090000000000000000000000000004105000812
:1000A000DD080008DD080008DD080008DD0800089C
:1000B000DD080008DD08000800000000DD08000879
:1000C000DD080008DD080008DD080008DD0800087C
:1000D000DD08000800000000000000000000000033
:1000E000DD080008DD080008DD0800080000000049
:1000F0000000000000000000000000000000000000
:1001000000000000DD08000800000000DD08000815
:1001100000000000000000000000000000000000DF
:1001200000000000000000000000000000000000CF
:1001300000000000000000000000000000000000BF
:10014000000000000000000000000000DD080008C2
:10015000000000000000000000000000000000009F
:10016000DD080008DD0800080000000000000000B5
:10017000000000000000000000000000000000007F
:1001800000000000DD080008000000000000000082
:04019000DD0800087E
:1001940010B5054C237833B9044B13B10448AFF3BD
:1001A40000800123237010BD2C00002000000000FB
:1001B4002C0B000808B5034B1BB103490348AFF3EC
:1001C400008008BD00000000300000202C0B000857
:1001D40090B486B000AF0446084611461A4623463A
:1001E400FB710346BB710B467B7113463B71FB7974
:1001F400413BFB75FB7D264A52F823303B613B793A
:1002040003F00103FB733B795B08BB733B691B6819
:10021400BA795200032101FA02F2D2431A403B692F
:100224001A603B691B687979BA79520001FA02F2C3
:100234001A433B691A603B695B68BA79012101FA88
:1002440002F2D2431A403B695A603B695B68F97B0E
:10025400BA7901FA02F21A433B695A603B69DB68D6
:10026400BA795200032101FA02F2D2431A403B69DF
:10027400DA603B69DB68B97BBA79520001FA02F2B1
:100284001A433B69DA6000BF1837BD4690BC70471B
:100294000000002080B485B000AF0346FB710B461C
:1002A400BB7113467B71FB79413BFB73FB7B0E4AAD
:1002B40052F82330BB60BB685B69BA79012101FA4B
:1002C40002F2D2431A40BB685A61BB685B69797910
:1002D400BA7901FA02F21A43BB685A6100BF1437B3
:1002E400BD465DF8047B70470000002080B483B0F5
:1002F40000AF0346FB71FB795F2B17D8FB795B09D1
:10030400DBB21A460C4B53F822301A68FB7903F01F
:100314001F03012101FA03F31946FB795B09DBB2E0
:100324001846054B53F820300A431A6000BF0C37B7
:10033400BD465DF8047B70470800002080B400AF20
:10034400054B1B68044A43F00103136000BFBD461C
:100354005DF8047B704700BF0038024080B485B06C
:1003640000AF0346FB71FB795B09FB73FB7903F078
:100374001F03BB73FB7B032B36D801A252F823F077
:1003840095030008AB030008C1030008D703000865
:10039400194B1B68BA7B012101FA02F21146164A75
:1003A4000B43136021E0154B1B68BA7B012101FA52
:1003B40002F21146114A0B43136016E0104B1B68FE
:1003C400BA7B012101FA02F211460D4A0B43136074
:1003D4000BE00C4B1B68BA7B012101FA02F21146B7
:1003E400084A0B43136000E000BF00BF1437BD464A
:1003F4005DF8047B704700BF303802403438024057
:10040400403802404438024080B500AFFFF796FF01
:100414000020FFF7A3FF0120FFF7A0FF6E20FFF7E6
:100424009DFF0223002204214220FFF7D1FE022374
:10043400002209214120FFF7CBFE002301220021E5
:100444004120FFF7C5FE0023012201214120FFF7CF
:10045400BFFE0023012202214120FFF7B9FE002341
:10046400012203214120FFF7B3FE002301220421CE
:100474004120FFF7ADFE0023012205214120FFF7B3
:10048400A7FE0023012206214120FFF7A1FE00233D
:10049400012207214120FFF79BFE002209210020B1
:1004A40000F01CFA092000F0EBFA092000F000FB30
:1004B40000220421012000F011FA042000F0E0FAE7
:1004C400042000F0F5FA054B1B78DBB2184600F067
:1004D4004FF84CF2503000F003F8F4E748000020E5
:1004E40080B485B000AF78600023FB6002E0FB6855
:1004F4000133FB60FA687B689A42F8D300BF143773
:10050400BD465DF8047B704780B400AF0A4B1B788E
:10051400DBB2002B07D0084B1B78DBB2013BDAB20D
:10052400054B1A7002E0044B09221A7000BFBD4645
:100534005DF8047B704700BF4800002080B400AF22
:100544000A4B1B78DBB2082B07D8084B1B78DBB2AD
:100554000133DAB2054B1A7002E0044B00221A7020
:1005640000BFBD465DF8047B704700BF4800002013
:1005740080B582B000AF0346FB71FB79092B00F212
:100584007F8101A252F823F0B5050008FD0500089B
:10059400450600088D060008D50600081D0700085A
:1005A40065070008AD070008F50700083D080008C6
:1005B400012200214120FFF76DFE0122012141208B
:1005C400FFF768FE012202214120FFF763FE0122AA
:1005D40003214120FFF75EFE012204214120FFF7A1
:1005E40059FE012205214120FFF754FE0022062175
:1005F4004120FFF74FFE43E1002200214120FFF795
:1006040049FE012201214120FFF744FE012202217B
:100614004120FFF73FFE002203214120FFF73AFE6D
:10062400002204214120FFF735FE0022052141204C
:10063400FFF730FE002206214120FFF72BFE1FE1C9
:10064400012200214120FFF725FE01220121412042
:10065400FFF720FE002202214120FFF71BFE0122AA
:1006640003214120FFF716FE012204214120FFF758
:1006740011FE002205214120FFF70CFE0122062174
:100684004120FFF707FEFBE0012200214120FFF794
:1006940001FE012201214120FFF7FCFD012202217C
:1006A4004120FFF7F7FD012203214120FFF7F2FD6E
:1006B400002204214120FFF7EDFD00220521412005
:1006C400FFF7E8FD012206214120FFF7E3FDD7E013
:1006D400002200214120FFF7DDFD012201214120FC
:1006E400FFF7D8FD012202214120FFF7D3FD0022AC
:1006F40003214120FFF7CEFD002204214120FFF712
:10070400C9FD012205214120FFF7C4FD0122062174
:100714004120FFF7BFFDB3E0012200214120FFF794
:10072400B9FD002201214120FFF7B4FD012202217D
:100734004120FFF7AFFD012203214120FFF7AAFD6D
:10074400002204214120FFF7A5FD012205214120BB
:10075400FFF7A0FD012206214120FFF79BFD8FE05A
:10076400012200214120FFF795FD002201214120B3
:10077400FFF790FD012202214120FFF78BFD0122AA
:1007840003214120FFF786FD012204214120FFF7C8
:1007940081FD012205214120FFF77CFD0122062174
:1007A4004120FFF777FD6BE0012200214120FFF794
:1007B40071FD012201214120FFF76CFD012202217C
:1007C4004120FFF767FD002203214120FFF762FD6E
:1007D400002204214120FFF75DFD00220521412074
:1007E400FFF758FD002206214120FFF753FD47E0A3
:1007F400012200214120FFF74DFD0122012141206A
:10080400FFF748FD012202214120FFF743FD0122A9
:1008140003214120FFF73EFD012204214120FFF77F
:1008240039FD012205214120FFF734FD0122062173
:100834004120FFF72FFD23E0012200214120FFF793
:1008440029FD012201214120FFF724FD012202217B
:100854004120FFF71FFD002203214120FFF71AFD6D
:10086400002204214120FFF715FD0122052141202A
:10087400FFF710FD012206214120FFF70BFD00BF09
:1008840000BF0837BD4680BD0D488546AFF30080E4
:100894000C480D490D4A002302E0D458C4500433D7
:1008A400C4188C42F9D30A4A0A4C002301E01360AD
:1008B4000432A242FBD300F013F9FFF7A5FDFEE7D3
:1008C40000800120000000202C0000204C0B0008B8
:1008D4002C0000204C000020FEE7000080B584B00E
:1008E40000AF0346FB710B46BB7113467B71BB79AA
:1008F400032B1BD85F4B9B68F979BA7902F003028A
:10090400920001FA02F2D24311465A4A0B40936014
:10091400584B9B68F979BA7902F00302920001FA04
:1009240002F21146534A0B43936064E0BB79032BF4
:100934001ED9BB79072B1BD84E4BDB68F979BA79E2
:1009440002F00302920001FA02F2D2431146494A2C
:100954000B40D360474BDB68F979BA7902F00302A4
:10096400920001FA02F21146424A0B43D36042E07C
:10097400BB79072B1ED9BB790B2B1BD83D4B1B69AD
:10098400F979BA7902F00302920001FA02F2D24331
:100994001146384A0B401361364B1B69F979BA7911
:1009A40002F00302920001FA02F21146314A0B43AB
:1009B400136120E0BB790B2B1DD9BB790F2B1AD8FF
:1009C4002C4B5B69F979BA7902F00302920001FABF
:1009D40002F2D2431146274A0B405361254B5B690F
:1009E400F979BA7902F00302920001FA02F211468F
:1009F400204A0B435361BB791F4AD35CFB73FB7BD7
:100A04001846FFF773FC7B79012B0FD0022B18D00B
:100A1400002B00D02AE0194BDB68BA79012101FAD6
:100A240002F21146154A0B43D3601FE0134B9B6837
:100A3400BA79012101FA02F21146104A0B4393607C
:100A440014E00E4BDB68BA79012101FA02F2114677
:100A54000A4A0B43D360094B9B68BA79012101FA16
:100A640002F21146054A0B43936000BF00BF1037E2
:100A7400BD4680BD0038014014000020003C014008
:100A840080B483B000AF0346FB71084B1B68FA794E
:100A9400012101FA02F21146044A0B43136000BF1C
:100AA4000C37BD465DF8047B704700BF003C014035
:100AB40080B483B000AF0346FB71084B5B69FA79DD
:100AC400012101FA02F21146044A0B43536100BFAB
:100AD4000C37BD465DF8047B704700BF003C014005
:100AE40070B50D4E0D4CA41BA4100025A54209D1D0
:100AF4000B4E0C4C00F018F8A41BA4100025A542C2
:100B040005D170BD56F8253098470135EEE756F803
:100B1400253098470135F2E7440B0008440B0008E0
:100B2400440B0008480B0008F8B500BFF8BC08BC2B
:100B34009E467047F8B500BFF8BC08BC9E46704797
:040B4400B9010008EB
:040B4800950100080B
:100B4C00000002400004024000E100E004E100E08B
:100B5C0008E100E0060708090A17171717172828D5
:0C0B6C002828282801292A000002030084
:040000050800088D5A
:00000001FF
