:020000040800F2
:1000000000000120050300080B030008130300088B
:10001000370300083F0300086303000800000000E6
:10002000000000000000000000000000870300083E
:100030008F03000800000000970300089F030008DA
:10004000BD030008BD030008BD030008BD03000890
:10005000BD030008BD030008BD030008BD03000880
:10006000BD030008BD030008BD030008BD03000870
:10007000BD030008BD030008BD030008BD03000860
:10008000BD030008BD030008BD0300080000000018
:10009000000000000000000000000000BD03000898
:1000A000BD030008BD030008BD030008BD03000830
:1000B000BD030008BD030008BD030008BD03000820
:1000C000BD030008BD030008BD030008BD03000810
:1000D000BD030008BD030008BD03000800000000C8
:1000E000BD030008BD030008BD03000800000000B8
:1000F000000000000000000000000000BD03000838
:1001000000000000BD030008BD030008BD03000897
:1001100000000000000000000000000000000000DF
:10012000BD030008BD030008BD030008BD030008AF
:10013000BD030008000000000000000000000000F7
:10014000000000000000000000000000BD030008E7
:10015000BD030008BD030008BD030008BD0300087F
:10016000BD030008BD0300080000000000000000FF
:10017000000000000000000000000000000000007F
:1001800000000000BD0300080000000000000000A7
:10019000BD03000880B596B000AF00F07DF94F4B6D
:1001A0007B6524E07B6D1A1D7A651B683B647B6D63
:1001B0001A1D7A651B68FB637B6D1A1D7A651B68C7
:1001C000BB633B6C7B63FB6B3B63BB6BFB623B6B5F
:1001D000BB6207E07A6B131D7B63BB6A191DB962B2
:1001E00012681A60FA6ABB6A9A42F3D800BF7B6D44
:1001F0003B4A9342D6D33B4B3B651AE03B6D1A1DFD
:100200003A651B68BB643B6D1A1D3A651B687B64CD
:10021000BB6C7B627B6C3B627B6AFB6104E0FB69CD
:100220001A1DFA6100221A603A6AFB699A42F6D8EE
:1002300000BF3B6D2C4A9342E0D300F03BF93A1DDE
:1002400007F108031146184600F014F9274A284B15
:10025000D31A9B103B610023FB6007E0244AFB6834
:1002600052F823309847FB680133FB603A69FB681A
:100270009A42F3DC1F4A204BD31A9B103B610023A8
:10028000FB6007E01C4AFB6852F823309847FB6884
:100290000133FB603A69FB689A42F3DC00BFBB683C
:1002A0007A681146184600F0B1F9F864134A144B05
:1002B000D31A9B10BB61BB697B6108E07B69013B82
:1002C0000F4A52F8233098477B69013B7B617B6979
:1002D000002BF3DC00BFF86C00F0C5F8C403000885
:1002E000DC030008DC030008EC030008EC03000852
:1002F000EC030008EC030008EC030008EC03000822
:10030000EC0300082948004700BF80B400AF00BFDD
:10031000FDE71EF0040F0CBFEFF30880EFF3098038
:100320007146234A104700BF80B483B000AF7860A5
:10033000396000BFFDE780B400AF00BFFDE71EF0ED
:10034000040F0CBFEFF30880EFF309807146194AE0
:10035000104700BF80B483B000AF7860396000BF41
:10036000FDE71EF0040F0CBFEFF30880EFF30980E8
:100370007146114A104700BF80B483B000AF786067
:10038000396000BFFDE780B400AF00BFFDE780B477
:1003900000AF00BFFDE780B400AF00BFFDE780B451
:1003A00000AF00BFBD4680BC70470000950100084B
:1003B00029030008550300087903000880B400AF42
:0403C00000BFFDE796
:1003C4007C11000800000020140000207C110008AB
:1003D400000000100000001014000020180000208D
:0803E4000000001000000010F1
:1003EC0080B582B000AF0346FB71FB7919468020C3
:1003FC0000F004F800BF0837BD4680BD80B582B060
:10040C0000AF03460A46FB711346BB71FB7963F0E0
:10041C007F03DBB2184600F02DFBBB79184600F0C9
:10042C0029FB00BF0837BD4680BD80B582B000AF48
:10043C0003463960FB71FB7903F07F03DBB218468E
:10044C0000F018FB002000F015FB03461A463B6831
:10045C001A7000BF0837BD4680BD80B582B000AFB2
:10046C00786000F03DF8000080B483B000AF786095
:10047C0039607B6801221A603B68034A1A6000BF2E
:10048C000C37BD4680BC70470000002080B500AF23
:10049C0000F02AF8024B034A9A6000BF80BD00BFEF
:1004AC0000ED00E00000000880B500AF00F028F877
:1004BC0000BF80BD80B400AFBFF34F8F00BF064BB1
:1004CC00DB6803F4E0620449044B1343CB60BFF3D5
:1004DC004F8F00BF00BFFDE700ED00E00400FA0500
:1004EC0080B500AFFFF7E6FF80B400AF034B4FF0D1
:1004FC0000629A6000BFBD4680BC704700ED00E012
:10050C0080B487B000AF00233B6100237B610223E2
:10051C00FB600023BB6002237B60344B9B6803F0C1
:10052C000C033B613B69082B11D03B69082B44D869
:10053C003B69002B03D03B69042B04D03DE02C4BD2
:10054C002C4A1A603DE02A4B2B4A1A6039E0274BA3
:10055C005B689B0D03F00103BB60244B5B6803F0ED
:10056C003F037B60BB68002B0CD0234A7B68B2FB3B
:10057C00F3F31E4A52689209C2F3080202FB03F31A
:10058C007B610BE01B4A7B68B2FBF3F3174A5268A2
:10059C009209C2F3080202FB03F37B61134B5B6805
:1005AC001B0C03F0030301335B00FB607A69FB68EF
:1005BC00B2FBF3F30E4A136003E00D4B0D4A1A60C5
:1005CC0000BF0A4B9B681B0903F00F030B4AD35C5B
:1005DC003B61074B1A683B6922FA03F3044A136028
:1005EC0000BF1C37BD4680BC704700BF00380240BE
:1005FC00080000200024F40000127A0060110008AA
:10060C0080B586B000AF00F057FA002000F062FA17
:10061C00512000F05FFA00F02FF9474A3B1D07CA42
:10062C0003C31A700023FB704FF000037B6100F0D2
:10063C0043FA002000F04EFA012000F04BFA6C2037
:10064C0000F048FA512000F045FA00230122002165
:10065C00422000F093FA00220021422000F0F0FA30
:10066C0000F00AF901220021012000F099F9012281
:10067C000021422000F0E4FA0020FFF7B1FE002236
:10068C000021422000F0DCFA4FF000037B610122D4
:10069C000021422000F0D4FAFB1C19460120FFF780
:1006AC00C4FE00220021422000F0CAFAFB785BB2A3
:1006BC00002B06DA4FF07C51786900F0A7FB03465B
:1006CC007B61FB7803F04003002B06D04FF07A518E
:1006DC00786900F09BFB03467B61012200214220DC
:1006EC0000F0AEFAFB1C19460220FFF79EFE00221A
:1006FC000021422000F0A4FAFB785BB2184600F00F
:10070C0039FC03461946786900F080FB03467B618F
:10071C003B1D1946786900F013F83B1D184600F094
:10072C0019F900233B6102E03B6901333B613B69F2
:10073C00024A9342F8DDA7E7701100089F8601007A
:10074C0080B584B000AF786039604FF000017868F4
:10075C0000F0B2FC0346002B09D03B682D221A7026
:10076C003B6801333B607B6883F000437B6040490E
:10077C00786800F091FA0346184600F0C5FC034671
:10078C00FB60FA683B4B83FB02139910D317C91A11
:10079C000B469B000B445B00D11ACBB23033DAB260
:1007AC003B68043352B21A70FB68324A82FB031264
:1007BC009210DB17D31AFB60FA682E4B83FB0213E3
:1007CC009910D317C91A0B469B000B445B00D11A26
:1007DC00CBB23033DAB23B68033352B21A703B6897
:1007EC0002332E221A70FB68224A82FB03129210EB
:1007FC00DB17D31AFB60FA681E4B83FB02139910AC
:10080C00D317C91A0B469B000B445B00D11ACBB211
:10081C003033DAB23B68013352B21A70FB68154AB6
:10082C0082FB03129210DB17D31AFB60FA68114B90
:10083C0083FB02139910D317C91A0B469B000B4468
:10084C005B00D11ACBB23033DBB25AB23B681A70B0
:10085C003B6805330D221A703B6806330A221A7066
:10086C003B68073300221A7000BF1037BD4680BDAD
:10087C000000C8426766666680B500AF002302229E
:10088C000221412000F07AF90023022203214120A9
:10089C0000F074F91A4B1B6A194A23F47F43136254
:1008AC00174B1B6A164A43F4EE431362154BDB6875
:1008BC00144A23F48053D360124B1B69114A23F45E
:1008CC00405313610F4BDB680E4A23F40043D36093
:1008DC000C4B40F283629A600A4BDB68094A43F086
:1008EC000803D360074BDB68064A43F00403D3606C
:1008FC00044BDB68034A43F40053D36000BF80BD54
:10090C00000002400044004080B483B000AF0346B6
:10091C00FB710F4B1B6803F08003002B11D00C4AAA
:10092C00FB79536000BF0A4B1B6803F04003002B9C
:10093C00F9D0074B1B68064A23F0400313600023D1
:10094C0000E0012318460C37BD4680BC704700BF41
:10095C000044004080B584B000AF78600023FB6099
:10096C00FF23FB7210E07A68FB68134493F90030A4
:10097C00DBB21846FFF7C8FF0346FB72FB7A002B6D
:10098C0002D1FB680133FB607A68FB68134493F96E
:10099C000030002BE7D100BF00BF1037BD4680BD33
:1009AC0080B582B000AF0346FB710B46BB7113469A
:1009BC007B71002302220521412000F0DFF8002387
:1009CC0002220621412000F0D9F80023022207213F
:1009DC00412000F0D3F8254B1B6A244A43F0AA436C
:1009EC0043F4A0031362224B1B68214A43F4407367
:1009FC0013601F4B1B681E4A23F0040313601C4B2F
:100A0C001A68FB799B001A4913430B60184B1B683F
:100A1C00174A23F002031360154B1A68BB795B006D
:100A2C00134913430B60124B1B68114A23F001034B
:100A3C0013600F4B1A687B790D4913430B600C4BF9
:100A4C001B680B4A23F038031360094B1B68084AD8
:100A5C0043F018031360064B1B68054A43F0400330
:100A6C00136000BF0837BD4680BD00BF00000240C8
:100A7C000030014080B483B000AF0346FB710D4BD6
:100A8C009B6803F00203002B0DD00A4AFB79D3605C
:100A9C0000BF084B9B6803F08003002BF9D1054B7A
:100AAC00DB68DBB200E0FF2318460C37BD4680BC88
:100ABC00704700BF0030014080B400AF044B1B688E
:100ACC00034A43F00103136000BFBD4680BC70476E
:100ADC000038024080B485B000AF0346FB71FB794F
:100AEC005B09FB73FB7903F01F03BB73FB7B032BCD
:100AFC0036D801A252F823F0150B00082B0B000876
:100B0C00410B0008570B0008184B1B68BA7B0121DE
:100B1C0001FA02F21146154A0B43136021E0144B03
:100B2C001B68BA7B012101FA02F21146104A0B43F1
:100B3C00136016E00F4B1B68BA7B012101FA02F21D
:100B4C0011460C4A0B4313600BE00B4B1B68BA7B32
:100B5C00012101FA02F21146074A0B43136000E02F
:100B6C0000BF00BF1437BD4680BC70473038024010
:100B7C0034380240403802404438024090B486B0C9
:100B8C0000AF0446084611461A462346FB7103463D
:100B9C00BB710B467B7113463B71FB79413BFB757B
:100BAC00FB7D264A52F823303B613B7903F001036D
:100BBC00FB733B795B08BB733B691B68BA795200CA
:100BCC00032101FA02F2D2431A403B691A603B69D5
:100BDC001B687979BA79520001FA02F21A433B691F
:100BEC001A603B695B68BA79012101FA02F2D243BF
:100BFC001A403B695A603B695B68F97BBA7901FA28
:100C0C0002F21A433B695A603B69DB68BA795200BD
:100C1C00032101FA02F2D2431A403B69DA603B69C4
:100C2C00DB68B97BBA79520001FA02F21A433B69CC
:100C3C00DA6000BF1837BD4690BC70470C0000202E
:100C4C0080B485B000AF0346FB710B46BB711346F5
:100C5C007B71FB79413BFB73FB7B0E4A52F82330D3
:100C6C00BB60BB685B69BA79012101FA02F2D2431D
:100C7C001A40BB685A61BB685B697979BA7901FA29
:100C8C0002F21A43BB685A6100BF1437BD4680BCE0
:100C9C00704700BF0C0000204FF0FF0C1CEAD05234
:100CAC001EBF1CEAD15392EA0C0F93EA0C0F6FD0C3
:100CBC001A4480EA010C400218BF5FEA41211ED0A1
:100CCC004FF0006343EA501043EA5111A0FB01318D
:100CDC000CF00040B1F5000F3EBF490041EAD37162
:100CEC005B0040EA010062F17F02FD2A1DD8B3F1DE
:100CFC00004F40EBC25008BF20F00100704790F04D
:100D0C00000F0CF0004C08BF49024CEA502040EA9E
:100D1C0051207F3AC2BFD2F1FF0340EAC250704764
:100D2C0040F400004FF00003013A5DDC12F1190FA2
:100D3C00DCBF00F000407047C2F10002410021FA14
:100D4C0002F1C2F1200200FA02FC5FEA310040F12C
:100D5C00000053EA4C0308BF20EADC70704792F0A5
:100D6C00000F00F0004C02BF400010F4000F013ADD
:100D7C00F9D040EA0C0093F0000F01F0004C02BFD8
:100D8C00490011F4000F013BF9D041EA0C018FE747
:100D9C000CEAD15392EA0C0F18BF93EA0C0F0AD04D
:100DAC0030F0004C18BF31F0004CD8D180EA010073
:100DBC0000F00040704790F0000F17BF90F0004F0C
:100DCC00084691F0000F91F0004F14D092EA0C0FEE
:100DDC0001D142020FD193EA0C0F03D14B0218BF81
:100DEC00084608D180EA010000F0004040F0FE40C7
:100DFC0040F40000704740F0FE4040F44000704763
:100E0C0080F0004002E000BF81F0004142001FBFB3
:100E1C005FEA410392EA030F7FEA226C7FEA236CBC
:100E2C006AD04FEA1262D2EB1363C1BFD2184140B1
:100E3C0048404140B8BF5B42192B88BF704710F047
:100E4C00004F40F4000020F07F4018BF404211F0EA
:100E5C00004F41F4000121F07F4118BF494292EA52
:100E6C00030F3FD0A2F1010241FA03FC10EB0C007E
:100E7C00C3F1200301FA03F100F0004302D549420B
:100E8C0060EB4000B0F5000F13D3B0F1807F06D3B8
:100E9C0040084FEA310102F10102FE2A51D2B1F1B0
:100EAC00004F40EBC25008BF20F0010040EA0300A5
:100EBC007047490040EB0000013A28BFB0F5000F25
:100ECC00EDD2B0FA80FCACF1080CB2EB0C0200FADB
:100EDC000CF0AABF00EBC25052421843BCBFD0402A
:100EEC001843704792F0000F81F4000106BF80F4A4
:100EFC0000000132013BB5E74FEA41037FEA226C67
:100F0C0018BF7FEA236C21D092EA030F04D092F031
:100F1C00000F08BF0846704790EA010F1CBF002065
:100F2C00704712F07F4F04D1400028BF40F00040C2
:100F3C00704712F100723CBF00F50000704700F0E2
:100F4C00004343F0FE4040F4000070477FEA226209
:100F5C0016BF08467FEA23630146420206BF5FEADA
:100F6C00412390EA010F40F4800070474FF00003DA
:100F7C0004E000BF10F0004348BF40425FEA000CA1
:100F8C0008BF704743F0964301464FF000001CE049
:100F9C0050EA010208BF70474FF000030AE000BF9F
:100FAC0050EA010208BF704711F0004302D54042DD
:100FBC0061EB41015FEA010C02BF8446014600204F
:100FCC0043F0B64308BFA3F18053A3F50003BCFA6A
:100FDC008CF2083AA3EBC25310DB01FA02FC634417
:100FEC0000FA02FCC2F12002BCF1004F20FA02F21E
:100FFC0043EB020008BF20F00100704702F1200211
:10100C0001FA02FCC2F1200250EA4C0021FA02F271
:10101C0043EB020008BF20EADC7070474FF0FF3C46
:10102C0006E000BF4FF0010C02E000BF4FF0010CD6
:10103C004DF804CD4FEA40024FEA41037FEA226C9F
:10104C0018BF7FEA236C11D001B052EA530C18BFC1
:10105C0090EA010F58BFB2EB030088BFC81738BF26
:10106C006FEAE17018BF40F0010070477FEA226C14
:10107C0002D15FEA402C05D17FEA236CE4D15FEA10
:10108C00412CE1D05DF8040B704700BF8446084644
:10109C006146FFE70FB5FFF7C9FF002848BF10F105
:1010AC00000F0FBD4DF808EDFFF7F4FF0CBF01204A
:1010BC0000205DF808FB00BF4DF808EDFFF7EAFFD4
:1010CC0034BF012000205DF808FB00BF4DF808ED8F
:1010DC00FFF7E0FF94BF012000205DF808FB00BF84
:1010EC004DF808EDFFF7D2FF94BF012000205DF80A
:1010FC0008FB00BF4DF808EDFFF7C8FF34BF012017
:10110C0000205DF808FB00BF4FEA4002B2F1FE4F31
:10111C000FD34FF09E03B3EB12620DD94FEA0023AD
:10112C0043F0004310F0004F23FA02F018BF404286
:10113C0070474FF00000704712F1610F01D142026D
:10114C0005D110F0004008BF6FF0004070474FF021
:10115C0000007047000000000000000001020304C2
:0D116C00060708092D20202E20200D0A0066
:10117C0014000020000000000024F40000000240D5
:04118C000004024019
:040000050800019559
:00000001FF
