:020000040800F2
:1000000000800120690B0008B90B0008B90B00083B
:10001000B90B0008B90B0008B90B0008000000007C
:10002000000000000000000000000000B90B000804
:10003000B90B000800000000B90B0008B90B00085C
:1000400000000000B90B0008B90B0008B90B00084C
:10005000B90B0008B90B0008B90B0008B90B000870
:10006000B90B0008B90B0008B90B0008000000002C
:100070000000000000000000000000000000000080
:100080000000000000000000B90B000800000000A4
:10009000000000000000000000000000B90B000894
:1000A000B90B0008B90B0008B90B0008B90B000820
:1000B000B90B0008B90B000800000000B90B0008DC
:1000C000B90B0008B90B0008B90B0008B90B000800
:1000D000B90B000800000000000000000000000054
:1000E000B90B0008B90B0008B90B000800000000AC
:1000F0000000000000000000000000000000000000
:1001000000000000B90B000800000000B90B000857
:1001100000000000000000000000000000000000DF
:1001200000000000000000000000000000000000CF
:1001300000000000000000000000000000000000BF
:10014000000000000000000000000000B90B0008E3
:10015000000000000000000000000000000000009F
:10016000B90B0008B90B00080000000000000000F7
:10017000000000000000000000000000000000007F
:1001800000000000B90B00080000000000000000A3
:04019000B90B00089F
:1001940010B5054C237833B9044B13B10448AFF3BD
:1001A40000800123237010BD000000200000000027
:1001B400040C000808B5034B1BB103490348AFF313
:1001C400008008BD0000000004000020040C0008AA
:1001D40080B485B000AFF860B9607A603B60FB68BA
:1001E400413B032B00F2F88001A252F823F000BF38
:1001F400050200087B020008F102000867030008FA
:10020400794B1B68BA685200032101FA02F2D24307
:100214001146754A0B401360734B1A68BB685B0048
:10022400796801FA03F3704913430B603B68012BAF
:1002340002D03B68002B13D16C4B1A683968BB6839
:1002440001FA03F3DB43694913400B60674B1A68F7
:100254003968BB6801FA03F3644913430B60BCE0DB
:10026400634B1A68BB685B00396801FA03F36049A1
:1002740013430B60B1E05F4B1B68BA685200032163
:1002840001FA02F2D24311465A4A0B401360594B09
:100294001A68BB685B00796801FA03F35549134394
:1002A4000B603B68012B02D03B68002B13D1524BEF
:1002B4001A683968BB6801FA03F3DB434E491340FB
:1002C4000B604D4B1A683968BB6801FA03F34A495D
:1002D40013430B6081E0494B1A68BB685B003968C3
:1002E40001FA03F3454913430B6076E0414B1B6865
:1002F400BA685200032101FA02F2D24311463D4A80
:100304000B4013603B4B1A68BB685B00796801FAC9
:1003140003F3384913430B603B68012B02D03B685D
:10032400002B13D1344B1A683968BB6801FA03F304
:10033400DB43314913400B602F4B1A683968BB68A3
:1003440001FA03F32C4913430B6046E02B4B1A6864
:10035400BB685B00396801FA03F3284913430B6057
:100364003BE0244B1B68BA685200032101FA02F2F5
:10037400D24311461F4A0B4013601E4B1A68BB68D8
:100384005B00796801FA03F31A4913430B603B6875
:10039400012B02D03B68002B13D1174B1A68396824
:1003A400BB6801FA03F3DB43134913400B60124BA0
:1003B4001A683968BB6801FA03F30F4913430B60E9
:1003C4000BE00E4B1A68BB685B00396801FA03F353
:1003D4000A4913430B6000E000BF00BF1437BD4659
:1003E4005DF8047B704700BF000002400400024037
:1003F4000C00024000040240040402400C040240C9
:1004040080B485B000AFF860B9607A60FB68413BA6
:10041400032B00F2938001A252F823F03104000868
:1004240075040008B9040008FD040008474B1A6865
:10043400BB685B0022FA03F303F00303012B15D11D
:10044400434B1B680121BA6801FA02F2D2431146F8
:100454003F4A0B4013603E4B1A687968BB6801FA47
:1004640003F33B4913430B60012368E0002366E078
:10047400384B1A68BB685B0022FA03F303F00303EA
:10048400012B15D1344B1B680121BA6801FA02F221
:10049400D2431146304A0B4013602F4B1A687968D7
:1004A400BB6801FA03F32C4913430B60012346E0B4
:1004B400002344E0274B1A68BB685B0022FA03F36D
:1004C40003F00303012B15D1234B1B680121BA68E8
:1004D40001FA02F2D24311461F4A0B4013601E4B2D
:1004E4001A687968BB6801FA03F31B4913430B606C
:1004F400012324E0002322E0164B1A68BB685B004A
:1005040022FA03F303F00303012B15D1124B1B68EA
:100514000121BA6801FA02F2D24311460E4A0B4095
:1005240013600D4B1A687968BB6801FA03F30A4932
:1005340013430B60012302E0002300E0002318466C
:100544001437BD465DF8047B704700BF00000240CD
:1005540014000240000402401404024080B483B03A
:1005640000AF786039607B68413B032B2AD801A235
:1005740052F823F08905000899050008A905000828
:10058400B9050008134B1A683B6822FA03F303F019
:10059400010318E0104B1A683B6822FA03F303F0D6
:1005A400010310E00C4B1A683B6822FA03F303F0D2
:1005B400010308E0084B1A683B6822FA03F303F0CE
:1005C400010300E0002318460C37BD465DF8047BA8
:1005D400704700BF100002401004024080B582B092
:1005E40000AF00237B6000237B6008E0012300222E
:1005F40079684220FFF7ECFD7B6801337B607B6800
:10060400022BF3D905237B600DE0002301227968D6
:100614004220FFF7DDFD012279684220FFF7F0FE5A
:100624007B6801337B607B68082BEED900BF0837F9
:10063400BD4680BD80B582B000AF05237B6031E04C
:10064400002279684220FFF7DBFE00233B601EE0B6
:1006540039684220FFF782FF0346002B14D1322071
:1006640000F0C6F939684220FFF778FF0346002BF3
:100674000AD17A6813465B001A443B6813440F3B63
:100684000C4A136000F024F83B6801333B603B687C
:10069400022BDDD9012279684220FFF7B1FE7B6885
:1006A40001337B607B68082BCAD900BF0837BD467D
:1006B40080BD00BF1C00002080B400AF034B1B684A
:1006C4001846BD465DF8047B704700BF1C0000203F
:1006D40080B582B000AFFFF7EFFF034601337B60C4
:1006E4007B68092B00F2808101A252F823F000BF3D
:1006F4001D07000865070008AD070008F507000896
:100704003D08000885080008CD0800081509000800
:100714005D090008A5090008012201214120FFF715
:100724006FFE012200214120FFF76AFE012202210F
:100734004120FFF765FE012203214120FFF760FEFF
:10074400012204214120FFF75BFE01220521412003
:10075400FFF756FE002206214120FFF751FE43E138
:10076400002200214120FFF74BFE012201214120FC
:10077400FFF746FE012202214120FFF741FE00223D
:1007840003214120FFF73CFE002204214120FFF712
:1007940037FE002205214120FFF732FE0022062108
:1007A4004120FFF72DFE1FE1012200214120FFF728
:1007B40027FE012201214120FFF722FE002202210F
:1007C4004120FFF71DFE012203214120FFF718FEFF
:1007D400012204214120FFF713FE002205214120BC
:1007E400FFF70EFE012206214120FFF709FEFBE080
:1007F400012200214120FFF703FE012201214120B3
:10080400FFF7FEFD012202214120FFF7F9FD01223D
:1008140003214120FFF7F4FD002204214120FFF7CA
:10082400EFFD002205214120FFF7EAFD0122062108
:100834004120FFF7E5FDD7E0002200214120FFF72A
:10084400DFFD012201214120FFF7DAFD012202210F
:100854004120FFF7D5FD002203214120FFF7D0FD01
:10086400002204214120FFF7CBFD01220521412074
:10087400FFF7C6FD012206214120FFF7C1FDB3E0C9
:10088400012200214120FFF7BBFD0022012141206C
:10089400FFF7B6FD012202214120FFF7B1FD01223D
:1008A40003214120FFF7ACFD002204214120FFF782
:1008B400A7FD012205214120FFF7A2FD0122062107
:1008C4004120FFF79DFD8FE0012200214120FFF729
:1008D40097FD002201214120FFF792FD0122022110
:1008E4004120FFF78DFD012203214120FFF788FD00
:1008F400012204214120FFF783FD0122052141202B
:10090400FFF77EFD012206214120FFF779FD6BE010
:10091400012200214120FFF773FD01220121412022
:10092400FFF76EFD012202214120FFF769FD00223D
:1009340003214120FFF764FD002204214120FFF739
:100944005FFD002205214120FFF75AFD0022062108
:100954004120FFF755FD47E0012200214120FFF728
:100964004FFD012201214120FFF74AFD012202210E
:100974004120FFF745FD012203214120FFF740FDFF
:10098400012204214120FFF73BFD012205214120E2
:10099400FFF736FD012206214120FFF731FD23E058
:1009A400012200214120FFF72BFD012201214120DA
:1009B400FFF726FD012202214120FFF721FD00223D
:1009C40003214120FFF71CFD002204214120FFF7F1
:1009D40017FD012205214120FFF712FD0122062106
:1009E4004120FFF70DFD00BF00BF0837BD4680BDA5
:1009F40080B485B000AF78600023FB6002E0FB6840
:100A04000133FB60FA687B689A42F8D300BF14375D
:100A1400BD465DF8047B704780B400AF054B1B688E
:100A2400044A43F00103136000BFBD465DF8047B34
:100A3400704700BF0038024080B485B000AF034661
:100A4400FB71FB795B09FB73FB7903F01F03BB7339
:100A5400FB7B032B36D801A252F823F0710A00085D
:100A6400870A00089D0A0008B30A0008194B1B688E
:100A7400BA7B012101FA02F21146164A0B431360B4
:100A840021E0154B1B68BA7B012101FA02F21146E1
:100A9400114A0B43136016E0104B1B68BA7B01210B
:100AA40001FA02F211460D4A0B4313600BE00C4BA2
:100AB4001B68BA7B012101FA02F21146084A0B4372
:100AC400136000E000BF00BF1437BD465DF8047B2F
:100AD400704700BF3038024034380240403802408A
:100AE4004438024080B500AFFFF796FF0020FFF7BF
:100AF400A3FF0120FFF7A0FF0023012200214120D2
:100B0400FFF766FB0023012201214120FFF760FB70
:100B14000023012202214120FFF75AFB0023012276
:100B240003214120FFF754FB00230122042141202B
:100B3400FFF74EFB0023012205214120FFF748FB6C
:100B44000023012206214120FFF742FB002301225A
:100B540007214120FFF73CFBFFF740FDFFF76AFD4B
:100B6400FCE700000D488546AFF300800C480D49B2
:100B74000D4A002302E0D458C4500433C4188C42F4
:100B8400F9D30A4A0A4C002301E013600432A2425A
:100B9400FBD300F011F8FFF7A5FFFEE7008001206A
:100BA4000000002000000020240C000800000020A9
:100BB40020000020FEE7000070B50D4E0D4CA41B74
:100BC400A4100025A54209D10B4E0C4C00F018F8D6
:100BD400A41BA4100025A54205D170BD56F82530EC
:100BE40098470135EEE756F8253098470135F2E786
:100BF4001C0C00081C0C00081C0C0008200C00082D
:100C0400F8B500BFF8BC08BC9E467047F8B500BFF5
:080C1400F8BC08BC9E467047C5
:040C1C00B901000812
:040C20009501000832
:0400000508000B697B
:00000001FF
