:020000040800F2
:1000000000800120390700088907000889070008D7
:100010008907000889070008890700080000000018
:100020000000000000000000000000008907000838
:1000300089070008000000008907000889070008F8
:1000400000000000890700088907000889070008E8
:100050008907000889070008890700088907000840
:1000600089070008890700088907000800000000C8
:100070000000000000000000000000000000000080
:1000800000000000000000008907000800000000D8
:1000900000000000000000000000000089070008C8
:1000A00089070008890700088907000889070008F0
:1000B0008907000889070008000000008907000878
:1000C00089070008890700088907000889070008D0
:1000D0008907000800000000000000000000000088
:1000E0008907000889070008890700080000000048
:1000F0000000000000000000000000000000000000
:1001000000000000890700080000000089070008BF
:1001100000000000000000000000000000000000DF
:1001200000000000000000000000000000000000CF
:1001300000000000000000000000000000000000BF
:100140000000000000000000000000008907000817
:10015000000000000000000000000000000000009F
:10016000890700088907000800000000000000005F
:10017000000000000000000000000000000000007F
:1001800000000000890700080000000000000000D7
:0401900089070008D3
:1001940010B5054C237833B9044B13B10448AFF3BD
:1001A40000800123237010BD000000200000000027
:1001B400D407000808B5034B1BB103490348AFF348
:1001C400008008BD0000000004000020D4070008DF
:1001D40080B485B000AFF860B9607A603B60FB68BA
:1001E400413B032B00F2F88001A252F823F000BF38
:1001F400050200087B020008F102000867030008FA
:10020400794B1B68BA685200032101FA02F2D24307
:100214001146754A0B401360734B1A68BB685B0048
:10022400796801FA03F3704913430B603B68012BAF
:1002340002D03B68002B13D16C4B1A683968BB6839
:1002440001FA03F3DB43694913400B60674B1A68F7
:100254003968BB6801FA03F3644913430B60BCE0DB
:10026400634B1A68BB685B00396801FA03F36049A1
:1002740013430B60B1E05F4B1B68BA685200032163
:1002840001FA02F2D24311465A4A0B401360594B09
:100294001A68BB685B00796801FA03F35549134394
:1002A4000B603B68012B02D03B68002B13D1524BEF
:1002B4001A683968BB6801FA03F3DB434E491340FB
:1002C4000B604D4B1A683968BB6801FA03F34A495D
:1002D40013430B6081E0494B1A68BB685B003968C3
:1002E40001FA03F3454913430B6076E0414B1B6865
:1002F400BA685200032101FA02F2D24311463D4A80
:100304000B4013603B4B1A68BB685B00796801FAC9
:1003140003F3384913430B603B68012B02D03B685D
:10032400002B13D1344B1A683968BB6801FA03F304
:10033400DB43314913400B602F4B1A683968BB68A3
:1003440001FA03F32C4913430B6046E02B4B1A6864
:10035400BB685B00396801FA03F3284913430B6057
:100364003BE0244B1B68BA685200032101FA02F2F5
:10037400D24311461F4A0B4013601E4B1A68BB68D8
:100384005B00796801FA03F31A4913430B603B6875
:10039400012B02D03B68002B13D1174B1A68396824
:1003A400BB6801FA03F3DB43134913400B60124BA0
:1003B4001A683968BB6801FA03F30F4913430B60E9
:1003C4000BE00E4B1A68BB685B00396801FA03F353
:1003D4000A4913430B6000E000BF00BF1437BD4659
:1003E4005DF8047B704700BF000002400400024037
:1003F4000C00024000040240040402400C040240C9
:1004040080B483B000AF786039607B68413B032BD4
:100414002AD801A252F823F02D0400083D04000854
:100424004D0400085D040008134B1A683B6822FA67
:1004340003F303F0010318E0104B1A683B6822FA37
:1004440003F303F0010310E00C4B1A683B6822FA33
:1004540003F303F0010308E0084B1A683B6822FA2F
:1004640003F303F0010300E0002318460C37BD46F4
:100474005DF8047B704700BF100002401004024086
:1004840080B400AF054B1B68044A43F001031360BA
:1004940000BFBD465DF8047B704700BF00380240D2
:1004A40080B485B000AF0346FB71FB795B09FB7335
:1004B400FB7903F01F03BB73FB7B032B36D801A22C
:1004C40052F823F0D9040008EF04000805050008D9
:1004D4001B050008194B1B68BA7B012101FA02F2C3
:1004E4001146164A0B43136021E0154B1B68BA7B77
:1004F400012101FA02F21146114A0B43136016E07E
:10050400104B1B68BA7B012101FA02F211460D4A15
:100514000B4313600BE00C4B1B68BA7B012101FAFF
:1005240002F21146084A0B43136000E000BF00BF0B
:100534001437BD465DF8047B704700BF3038024075
:1005440034380240403802404438024080B582B01A
:1005540000AFFFF795FF0020FFF7A2FF0120FFF790
:100564009FFF0023012200214120FFF731FE0023D9
:10057400012201214120FFF72BFE00230122022149
:100584004120FFF725FE0023012203214120FFF72C
:100594001FFE0023012204214120FFF719FE00233E
:1005A400012205214120FFF713FE00230122062129
:1005B4004120FFF70DFE0023012207214120FFF710
:1005C40007FE0123002203214220FFF701FE114B05
:1005D4001B68104A23F0080313600023012205213D
:1005E4004220FFF7F5FD0023012206214220FFF7F8
:1005F400EFFD0023012207214220FFF7E9FD00233C
:10060400FB710123BB71BA1DFB1D1146184600F096
:1006140017F8F8E70404024080B485B000AF7860AE
:100624000023FB6002E0FB680133FB60FA687B682F
:100634009A42F8D300BF1437BD465DF8047B704777
:1006440080B584B000AF7860396003214220FFF7A1
:10065400D7FE0346002B14BF01230023DBB2FB604B
:10066400FB68002B5BD13B681B78012B57D13220F0
:10067400FFF7D2FF03214220FFF7C2FE0346002BFF
:1006840014BF01230023DBB2FB60FB68002B46D1BF
:100694007B681B78602B24D0602B06DC202B14D0C5
:1006A400402B16D0002B0CD02BE0A02B21D0A02B5C
:1006B40002DC802B11D024E0C02B16D0E02B1CD000
:1006C4001FE07B6820221A701BE07B6840221A70AE
:1006D40017E07B6880221A7013E07B6860221A702E
:1006E4000FE07B68C0221A700BE07B68A0221A70AE
:1006F40007E07B68E0221A7003E07B6800221A702E
:1007040000BF0B4B1B680A4A23F0E0031360084B3D
:100714001B687A6812781146054A0B431360FB681C
:10072400DAB23B681A7000BF1037BD4680BD00BF07
:10073400140402400D488546AFF300800C480D496F
:100744000D4A002302E0D458C4500433C4188C4228
:10075400F9D30A4A0A4C002301E013600432A2428E
:10076400FBD300F011F8FFF7F1FEFEE70080012053
:100774000000002000000020F40700080000002012
:100784001C000020FEE7000070B50D4E0D4CA41BAC
:10079400A4100025A54209D10B4E0C4C00F018F80A
:1007A400A41BA4100025A54205D170BD56F8253020
:1007B40098470135EEE756F8253098470135F2E7BA
:1007C400EC070008EC070008EC070008F007000835
:1007D400F8B500BFF8BC08BC9E467047F8B500BF2A
:0807E400F8BC08BC9E467047FA
:0407EC00B901000847
:0407F0009501000867
:0400000508000739AF
:00000001FF
