:020000040800F2
:1000000000800120A1050008F1050008F1050008A5
:10001000F1050008F1050008F105000800000000E6
:10002000000000000000000000000000F1050008D2
:10003000F105000800000000F1050008F1050008C6
:1000400000000000F1050008F1050008F1050008B6
:10005000F1050008F1050008F1050008F1050008A8
:10006000F1050008F1050008F10500080000000096
:100070000000000000000000000000000000000080
:100080000000000000000000F10500080000000072
:10009000000000000000000000000000F105000862
:1000A000F1050008F1050008F1050008F105000858
:1000B000D1040008F105000800000000F105000867
:1000C000F1050008F1050008F1050008F105000838
:1000D000F105000800000000000000000000000022
:1000E000F1050008F1050008F10500080000000016
:1000F0000000000000000000000000000000000000
:1001000000000000F105000800000000F1050008F3
:1001100000000000000000000000000000000000DF
:1001200000000000000000000000000000000000CF
:1001300000000000000000000000000000000000BF
:10014000000000000000000000000000F1050008B1
:10015000000000000000000000000000000000009F
:10016000F1050008F1050008000000000000000093
:10017000000000000000000000000000000000007F
:1001800000000000F1050008000000000000000071
:04019000F10500086D
:1001940010B5054C237833B9044B13B10448AFF3BD
:1001A40000800123237010BD200000200000000007
:1001B4003C06000808B5034B1BB103490348AFF3E1
:1001C400008008BD00000000240000203C06000858
:1001D40090B486B000AF0446084611461A4623463A
:1001E400FB710346BB710B467B7113463B71FB7974
:1001F400413BFB75FB7D264A52F823303B613B793A
:1002040003F00103FB733B795B08BB733B691B6819
:10021400BA795200032101FA02F2D2431A403B692F
:100224001A603B691B687979BA79520001FA02F2C3
:100234001A433B691A603B695B68BA79012101FA88
:1002440002F2D2431A403B695A603B695B68F97B0E
:10025400BA7901FA02F21A433B695A603B69DB68D6
:10026400BA795200032101FA02F2D2431A403B69DF
:10027400DA603B69DB68B97BBA79520001FA02F2B1
:100284001A433B69DA6000BF1837BD4690BC70471B
:100294000000002080B485B000AF03460A46FB711D
:1002A4001346BB71FB79413BFB73FB7B094A52F854
:1002B4002330BB60BB685B69BA79012101FA02F2A1
:1002C4005A40BB685A6100BF1437BD465DF8047BD1
:1002D400704700BF0000002080B483B000AF034625
:1002E400FB71FB795F2B17D8FB795B09DBB21A46EC
:1002F4000C4B53F822301A68FB7903F01F030121D9
:1003040001FA03F31946FB795B09DBB21846054B86
:1003140053F820300A431A6000BF0C37BD465DF81D
:10032400047B70470800002080B487B000AF034608
:100334000A46FB711346BB71BB79FB75FB7D0F2B22
:1003440001D90F23FB75FB799B08DBB23B61FB7979
:1003540003F00303DB00FB60144A3B6952F82330CB
:100364001A68FF21FB6801FA03F3DB4318460F49BF
:100374003B6951F8233002401A600C4A3B6952F839
:1003840023301A68FB7D03F00F01FB68043301FA84
:1003940003F3184605493B6951F8233002431A60B8
:1003A40000BF1C37BD465DF8047B70471400002075
:1003B40080B400AF054B1B68044A43F0010313608B
:1003C40000BFBD465DF8047B704700BF00380240A3
:1003D40080B485B000AF0346FB71FB795B09FB7306
:1003E400FB7903F01F03BB73FB7B032B36D801A2FD
:1003F40052F823F0090400081F040008350400081B
:100404004B040008194B1B68BA7B012101FA02F264
:100414001146164A0B43136021E0154B1B68BA7B47
:10042400012101FA02F21146114A0B43136016E04E
:10043400104B1B68BA7B012101FA02F211460D4AE6
:100444000B4313600BE00C4B1B68BA7B012101FAD0
:1004540002F21146084A0B43136000E000BF00BFDC
:100464001437BD465DF8047B704700BF3038024046
:1004740034380240403802404438024080B500AF6E
:100484004020FFF7A5FF4FF0804300229A624FF00F
:10049400804343F67F62DA624FF08043DB684FF0BB
:1004A400804243F00103D3604FF080431B684FF058
:1004B400804243F00103136001211C20FFF734FF45
:1004C4001C20FFF709FF00BF80BD000080B400AF0F
:1004D4004FF080431B6903F00103002B0CD04FF055
:1004E40080431B694FF0804223F001031361054BE5
:1004F4001B680133034A136000BFBD465DF8047BEB
:10050400704700BF3C00002080B584B000AFFFF707
:100514004FFF0020FFF75CFF002301220021412050
:10052400FFF756FE0023012201214120FFF750FE70
:100534000023012202214120FFF74AFEFFF79EFF1C
:100544003223FB606423BB60C8237B60124B1B68AF
:10055400FA689A4206D800214120FFF79BFEFB6807
:100564003233FB600C4B1B68BA689A4206D80121EF
:100574004120FFF78FFEBB686433BB60064B1B68EA
:100584007A689A42E2D802214120FFF783FE7B6811
:10059400C8337B60DAE700BF3C0000200D48854685
:1005A400AFF300800C480D490D4A002302E0D458F3
:1005B400C4500433C4188C42F9D30A4A0A4C0023A9
:1005C40001E013600432A242FBD300F011F8FFF7FC
:1005D4009BFFFEE700800120000000202000002097
:1005E4005C0600082000002040000020FEE7000018
:1005F40070B50D4E0D4CA41BA4100025A54209D1C5
:100604000B4E0C4C00F018F8A41BA4100025A542B6
:1006140005D170BD56F8253098470135EEE756F8F8
:10062400253098470135F2E75406000854060008BF
:100634005406000858060008F8B500BFF8BC08BC0A
:100644009E467047F8B500BFF8BC08BC9E4670478C
:04065400B9010008E0
:040658009501000800
:10065C00000002400004024000E100E004E100E080
:10066C0008E100E000E500E004E500E008E500E05A
:04000005080005A149
:00000001FF
